{
  "_format": "hh-sol-artifact-1",
  "contractName": "CoinFlip",
  "sourceName": "contracts/CoinFlip.sol",
  "abi": [
    {
      "inputs": [],
      "stateMutability": "nonpayable",
      "type": "constructor"
    },
    {
      "anonymous": false,
      "inputs": [
        {
          "indexed": true,
          "internalType": "address",
          "name": "user",
          "type": "address"
        },
        {
          "indexed": false,
          "internalType": "uint256",
          "name": "amount",
          "type": "uint256"
        },
        {
          "indexed": false,
          "internalType": "bool",
          "name": "win",
          "type": "bool"
        }
      ],
      "name": "BetPlaced",
      "type": "event"
    },
    {
      "anonymous": false,
      "inputs": [
        {
          "indexed": true,
          "internalType": "address",
          "name": "owner",
          "type": "address"
        },
        {
          "indexed": false,
          "internalType": "uint256",
          "name": "amount",
          "type": "uint256"
        }
      ],
      "name": "FundsWithdrawn",
      "type": "event"
    },
    {
      "inputs": [
        {
          "internalType": "uint256",
          "name": "betAmount",
          "type": "uint256"
        }
      ],
      "name": "creditUser",
      "outputs": [],
      "stateMutability": "nonpayable",
      "type": "function"
    },
    {
      "inputs": [],
      "name": "debitUser",
      "outputs": [],
      "stateMutability": "payable",
      "type": "function"
    },
    {
      "inputs": [],
      "name": "owner",
      "outputs": [
        {
          "internalType": "address",
          "name": "",
          "type": "address"
        }
      ],
      "stateMutability": "view",
      "type": "function"
    },
    {
      "stateMutability": "payable",
      "type": "receive"
    }
  ],
  "bytecode": "0x608060405234801561001057600080fd5b50336000806101000a81548173ffffffffffffffffffffffffffffffffffffffff021916908373ffffffffffffffffffffffffffffffffffffffff160217905550610661806100606000396000f3fe6080604052600436106100385760003560e01c8063767e0e80146100445780638da5cb5b1461004e578063c0baeaac146100795761003f565b3661003f57005b600080fd5b61004c6100a2565b005b34801561005a57600080fd5b50610063610138565b6040516100709190610483565b60405180910390f35b34801561008557600080fd5b506100a0600480360381019061009b9190610318565b61015c565b005b600034116100e5576040517f08c379a00000000000000000000000000000000000000000000000000000000081526004016100dc9061049e565b60405180910390fd5b3373ffffffffffffffffffffffffffffffffffffffff167ff8e99859e696debf4ef1752d671f759f7f63a1116efe995d789edfb3849c354934600060405161012e9291906104fe565b60405180910390a2565b60008054906101000a900473ffffffffffffffffffffffffffffffffffffffff1681565b6000811161019f576040517f08c379a00000000000000000000000000000000000000000000000000000000081526004016101969061049e565b60405180910390fd5b60006002826101ae9190610543565b9050804710156101f3576040517f08c379a00000000000000000000000000000000000000000000000000000000081526004016101ea906104de565b60405180910390fd5b6101fd3382610252565b3373ffffffffffffffffffffffffffffffffffffffff167ff8e99859e696debf4ef1752d671f759f7f63a1116efe995d789edfb3849c35498360016040516102469291906104fe565b60405180910390a25050565b60008273ffffffffffffffffffffffffffffffffffffffff16826040516102789061046e565b60006040518083038185875af1925050503d80600081146102b5576040519150601f19603f3d011682016040523d82523d6000602084013e6102ba565b606091505b50509050806102fe576040517f08c379a00000000000000000000000000000000000000000000000000000000081526004016102f5906104be565b60405180910390fd5b505050565b60008135905061031281610614565b92915050565b60006020828403121561032a57600080fd5b600061033884828501610303565b91505092915050565b61034a8161059d565b82525050565b610359816105af565b82525050565b600061036c602183610532565b91507f42657420616d6f756e74206d7573742062652067726561746572207468616e2060008301527f30000000000000000000000000000000000000000000000000000000000000006020830152604082019050919050565b60006103d2600f83610532565b91507f5061796d656e74206661696c65642e00000000000000000000000000000000006000830152602082019050919050565b6000610412600083610527565b9150600082019050919050565b600061042c601d83610532565b91507f496e73756666696369656e7420636f6e74726163742062616c616e63650000006000830152602082019050919050565b610468816105db565b82525050565b600061047982610405565b9150819050919050565b60006020820190506104986000830184610341565b92915050565b600060208201905081810360008301526104b78161035f565b9050919050565b600060208201905081810360008301526104d7816103c5565b9050919050565b600060208201905081810360008301526104f78161041f565b9050919050565b6000604082019050610513600083018561045f565b6105206020830184610350565b9392505050565b600081905092915050565b600082825260208201905092915050565b600061054e826105db565b9150610559836105db565b9250817fffffffffffffffffffffffffffffffffffffffffffffffffffffffffffffffff0483118215151615610592576105916105e5565b5b828202905092915050565b60006105a8826105bb565b9050919050565b60008115159050919050565b600073ffffffffffffffffffffffffffffffffffffffff82169050919050565b6000819050919050565b7f4e487b7100000000000000000000000000000000000000000000000000000000600052601160045260246000fd5b61061d816105db565b811461062857600080fd5b5056fea2646970667358221220a1a3854e5ba6824d771441775f4892d5cb99e19857c23d2dd3f637d076242ef664736f6c63430008000033",
  "linkReferences": {},
  "deployedLinkReferences": {}
}